:020000040800F2
:1000000020100020C53D00082139000823390008D0
:1000100025390008273900082939000800000000A8
:100020000000000000000000000000002B39000864
:100030002D390008000000002F3900083139000870
:10004000193F00081D3F0008213F0008253F000818
:10005000293F00082D3F0008713A0008893A00083E
:10006000A13A0008B93A0008D13A0008313F000827
:10007000393900084D390008653900088F39000802
:10008000A7390008BF390008353F0008D7390008F4
:10009000D9390008133A00081D3A0008E93A000867
:1000A000393F00083D3F0008413F0008453F000838
:1000B000493F00084D3F0008513F0008553F0008E8
:1000C000593F00085D3F0008613F0008273A0008DB
:1000D000653F0008293A0008413A0008593A0008EB
:1000E000293B0008693F0008E33900086D3F00081C
:1000F000713F0008753F0008793F00087D3F000808
:100100000000000000000000813F0008853F00085B
:10011000893F00088D3F0008913F0008953F000887
:10012000993F00089D3F0008453B0008A13F00089B
:10013000A53F0008A93F0008AD3F0008B13F0008F7
:1001400000000000000000000000000000000000AF
:100150001F3A0008213A0008233A0008253A00080F
:10016000EF390008B53F0008B93F0008BD3F00085F
:10017000C13F0008C53F00080000000010F0070262
:10018000DFF8803B1B6819004FF6FF031940DFF8CA
:10019000783B53EA02231943DFF8683B1960704744
:1001A000DFF8600B0068C0F302207047012110F0F7
:1001B0001F029140DFF8542B40B2430942F823104C
:1001C000704710B440B2002809D50A01DFF8403B5F
:1001D00040B210F00F04234403F8042C04E00A0199
:1001E000DFF8303B40B21A5410BC704770B40300C3
:1001F00013F00704D4F10706052E01D3042001E013
:10020000D4F10700261D072E01D2002500E0E51ECF
:10021000012616FA00F0401E0840A8400121A9401E
:10022000491E1140084370BC7047F8B504000D002A
:1002300016001F00684600F022FEADF800708DF831
:1002400003508DF802606946200000F07DFDF1BD8D
:1002500080B50121012001F0FCF90121042001F009
:10026000F8F90121082001F0F4F90121102001F032
:10027000F0F901215FF0007000F009FE4FF4005129
:10028000DFF8940A89B241614FF40041DFF88C0A2B
:1002900089B201611021DFF8880A89B24161202109
:1002A000DFF87C0A89B241610121DFF8740A89B262
:1002B00041610221DFF8680A89B241611021DFF84B
:1002C0005C0A89B241612021DFF8500A89B241619C
:1002D0004021DFF8480A89B241618021DFF83C0AF9
:1002E00089B241614FF48051DFF8340A89B241612B
:1002F0004FF40051DFF8280A89B241614FF4804180
:10030000DFF81C0A89B241614FF40041DFF8100A9E
:1003100089B241614FF40041DFF8FC0989B24161C3
:100320004FF48041DFF8F00989B241614FF48071E8
:10033000DFF8E80989B241610821DFF8E40989B2F0
:1003400041614FF4005302221021DFF8CC09FFF77E
:100350006CFF4FF4004302221021DFF8C009FFF7C1
:1003600064FF102302221021DFF8B009FFF75DFFC0
:10037000202302221021DFF8A409FFF756FF4023B3
:1003800002221021DFF89409FFF74FFF8023022299
:100390001021DFF88809FFF748FF4FF4805302224D
:1003A0001021DFF87C09FFF740FF4FF400530222D1
:1003B0001021DFF86C09FFF738FF4FF48043022269
:1003C0001021DFF85C09FFF730FF4FF400430222F1
:1003D0001021DFF84C09FFF728FF4FF400430222F9
:1003E0001021DFF83409FFF720FF4FF48043022289
:1003F0001021DFF82409FFF718FF4FF48073022261
:100400001021DFF81809FFF710FF0823022210213E
:10041000DFF80C09FFF709FF01BD80B50320FFF7E6
:10042000ADFEFFF7BDFE00220021FFF7DFFE010059
:100430000320FFF7C6FE0320FFF7B8FEFFF7B0FE6C
:1004400000220021FFF7D2FE01002520FFF7B9FEB0
:100450002520FFF7ABFEFFF7A3FE00220021FFF7E8
:10046000C5FE01002620FFF7ACFE2620FFF79EFE0A
:10047000FFF796FE00220021FFF7B8FE01002420BE
:10048000FFF79FFE2420FFF791FEFFF789FE002271
:100490000021FFF7ABFE01001320FFF792FE1320AF
:1004A000FFF784FEFFF77CFE00220021FFF79EFE8F
:1004B00001001420FFF785FE1420FFF777FEFFF7F9
:1004C0006FFE00220021FFF791FE01001520FFF7CB
:1004D00078FE1520FFF76AFEFFF762FE002200217A
:1004E000FFF784FE01000620FFF76BFE0620FFF7F2
:1004F0005DFEFFF755FE00220021FFF777FE0100A9
:100500000720FFF75EFE0720FFF750FEFFF748FECB
:1005100000220021FFF76AFE01000A20FFF751FECA
:100520000A20FFF743FEFFF73BFE00220021FFF702
:100530005DFE01001720FFF744FE1720FFF736FE8F
:1005400001BD80B50121012001F074F8FFF728FEFC
:1005500000220021FFF74AFE01000B20FFF731FEC9
:100560000B20FFF723FEFFF71BFE00220021FFF701
:100570003DFE01000C20FFF724FE0C20FFF716FEC5
:10058000FFF70EFE00220021FFF730FE01000D20D4
:10059000FFF717FE0D20FFF709FEFFF701FE00220F
:1005A0000021FFF723FE01000E20FFF70AFE0E20B8
:1005B000FFF7FCFDFFF7F4FD00220021FFF716FE18
:1005C00001000F20FFF7FDFD0F20FFF7EFFDFFF704
:1005D000E7FD00220021FFF709FE01001020FFF7D0
:1005E000F0FD1020FFF7E2FDFFF7DAFD0022002109
:1005F000FFF7FCFD01001120FFF7E3FD1120FFF7DD
:10060000D5FD0121022001F015F8FFF7C9FD0022F8
:100610000021FFF7EBFD01003A20FFF7D2FD3A2061
:10062000FFF7C4FD01BD1FB504000121042001F046
:1006300010F801214FF4804001F00BF84FF40073E3
:1006400002221821DFF8D406FFF7EFFD4FF4806394
:1006500002220421DFF8C406FFF7E7FDDFF8C40635
:1006600001F066F8684601F063F900940020ADF8E7
:1006700008000020ADF804000020ADF806000C20B2
:10068000ADF80A000020ADF80C006946DFF89406CA
:1006900001F0C0F80121DFF88C0601F057F90122C2
:1006A00040F22551DFF87C0601F05EF91FBD1FB551
:1006B00004000121042000F0CCFF01215FF4003090
:1006C00000F0D6FF042302221821DFF85006FFF7BE
:1006D000ACFD082302220421DFF84006FFF7A5FD48
:1006E000DFF8440601F024F8684601F021F900948F
:1006F0000020ADF808000020ADF804000020ADF89F
:1007000006000C20ADF80A000020ADF80C00694688
:10071000DFF8140601F07EF80121DFF80C0601F085
:1007200015F9012240F22551DFF8FC0501F01CF912
:100730001FBD4FF40050DFF8F415086070474FF408
:100740000050DFF8EC150860704700B589B0012152
:10075000082000F07EFF0121012000F089FF012127
:10076000DFF8D00500F093FB012302221821DFF807
:10077000AC05FFF75AFD022302221821DFF89C0581
:10078000FFF753FD4FF4806302221821DFF8900534
:10079000FFF74BFD4FF4006302221821DFF88005BC
:1007A000FFF743FD5FF0804001F060F9EF20ADF806
:1007B000140040F2E73007900020ADF82000002040
:1007C0008DF8220005A95FF0804001F0E9F90021D1
:1007D0005FF0804001F01FFB6020ADF800000120B9
:1007E000ADF802000020ADF804004FF4FA7002905A
:1007F0000020ADF80C000020ADF80E000020ADF890
:1008000010000020ADF8120069465FF0804001F052
:10081000FDF969465FF0804001F031FA69465FF00A
:10082000804001F06CFA69465FF0804001F0A6FA62
:1008300001215FF0804001F0DDFA08215FF0804087
:1008400001F000FB08215FF0804001F004FB08216B
:100850005FF0804001F009FB08215FF0804001F06B
:100860000DFB01215FF0804001F0DEFA01215FF015
:10087000804001F0B1FA09B000BD00B589B0012196
:10088000082000F0E6FE0121022000F0F1FE012127
:10089000DFF8A40400F0FBFA102302221821DFF88D
:1008A0008004FFF7C2FC202302221821DFF8700425
:1008B000FFF7BBFC012302221821DFF86404FFF7D5
:1008C000B4FC022302221821DFF85404FFF7ADFC28
:1008D000DFF8680401F0CAF8EF20ADF8140040F228
:1008E000E73007900020ADF8200000208DF82200AE
:1008F00005A9DFF8480401F053F90021DFF83C04B2
:1009000001F089FA6020ADF800000120ADF8020086
:100910000020ADF804004FF4FA7002900020ADF80A
:100920000C000020ADF80E000020ADF810000020F3
:10093000ADF812006946DFF8040401F067F9694672
:10094000DFF8F80301F09BF96946DFF8F00301F0E6
:10095000D6F96946DFF8E40301F010FA0821DFF860
:10096000DC0301F06FFA0821DFF8D00301F073FA1D
:100970000821DFF8C80301F078FA0821DFF8BC038A
:1009800001F07CFA0121DFF8B40301F04DFA0121F6
:10099000DFF8A80301F020FA09B000BD00B589B066
:1009A0000121082000F055FE0121042000F060FE26
:1009B000402302221821DFF86803FFF736FC80236A
:1009C00002221821DFF85803FFF72FFC4FF4807341
:1009D00002221821DFF84803FFF727FC4FF40073C9
:1009E00002221821DFF83803FFF71FFCDFF850035D
:1009F00001F03CF8EF20ADF8140040F2E73007902A
:100A00000020ADF8200000208DF8220005A9DFF8B5
:100A1000300301F0C5F80021DFF8240301F0FBF9F1
:100A20006020ADF800000120ADF802000020ADF814
:100A300004004FF4FA7002900020ADF80C00002082
:100A4000ADF80E000020ADF810000020ADF8120047
:100A50006946DFF8EC0201F0D9F86946DFF8E002F8
:100A600001F00DF96946DFF8D80201F048F969464E
:100A7000DFF8CC0201F082F90121DFF8C40201F0B5
:100A8000B9F90821DFF8B80201F0DCF90821DFF834
:100A9000B00201F0E0F90821DFF8A40201F0E5F965
:100AA0000821DFF89C0201F0E9F90121DFF890024A
:100AB00001F0BAF90121DFF8880201F08DF909B0DF
:100AC00000BD10B584B0040001215FF0007000F09B
:100AD000CFFD4FF40063022248219048FFF7A5FBA9
:100AE0004FF48053022218218C48FFF79EFB684682
:100AF00001F0F9FA934801F0DFF9022001F0C7FD97
:100B000000208DF8060000208DF8070000208DF8E9
:100B1000080000208DF8090000208DF80A00002050
:100B20008DF80B0000208DF80200E4B2002C13D0E9
:100B3000022C2DD01ED3042C45D037D3062C5CD0EC
:100B40004ED3082C73D065D30A2C00F08A807BD357
:100B50000B2C00F093809EE04FF41660ADF800007F
:100B600001208DF8030004208DF8040003208DF887
:100B700005009CE04FF49660ADF8000001208DF870
:100B8000030004208DF8040003208DF805008EE09A
:100B90004FF41670ADF8000001208DF8030004201A
:100BA0008DF8040003208DF8050080E0F020ADF8FA
:100BB000000001208DF8030004208DF804000320BC
:100BC0008DF8050073E07820ADF8000001208DF865
:100BD000030004208DF8040003208DF8050066E072
:100BE0006020ADF8000001208DF8030004208DF88E
:100BF000040003208DF8050059E03020ADF8000016
:100C000001208DF8030004208DF8040003208DF8E6
:100C100005004CE01820ADF8000001208DF803001D
:100C200004208DF8040003208DF805003FE0142017
:100C3000ADF8000001208DF8030004208DF80400B9
:100C400003208DF8050032E01020ADF800000120EF
:100C50008DF8030004208DF8040003208DF80500B2
:100C600025E00C20ADF8000001208DF803000720DE
:100C70008DF8040002208DF8050018E00C20ADF876
:100C8000000001208DF8030004208DF804000320EB
:100C90008DF805000BE00C20ADF8000001208DF868
:100CA000030004208DF8040003208DF80500694638
:100CB000244801F012F91FBD10B5040001220221E1
:100CC000204801F0A2FB012204211E4801F09DFBF7
:100CD000012208211B4801F098FB0122102119482C
:100CE00001F093FB01222021164801F08EFB012226
:100CF0004021144801F089FB0121200001F027FB6D
:100D000010BD00000CED00E00000FA0500E100E07D
:100D100018ED00E000E400E0001001400008014090
:100D2000000C014000380140004400401010014018
:100D30001410014092000080A200008000040040D6
:100D40000008004000640040F0B5002700220023A6
:100D500000240025002691F803C01CF00F0C674604
:100D600091F803C05FEACC6C03D591F802C05CEA4D
:100D7000070791F800C05FEA0C6C3AD0D0F800C0C9
:100D800065465FF0000C6346082B31D25FF0010C22
:100D90001CFA03FC6446B1F800C014EA0C0C62466D
:100DA000A24223D15FEA830C64465FF00F0C1CFA69
:100DB00004FC6646B54317FA04FC5CEA050591F8A5
:100DC00003C0BCF1280F06D15FF0010C1CFA03FC34
:100DD000C0F814C00AE091F803C0BCF1480F05D177
:100DE0005FF0010C1CFA03FCC0F810C05B1CCBE7E1
:100DF0000560B1F800C0BCF1FF0F3FDDD0F804C0C2
:100E000065465FF0000C6346082B36D25FF0010C9C
:100E100013F1080E1CFA0EFC6446B1F800C014EA87
:100E20000C0C6246A24226D15FEA830C64465FF056
:100E30000F0C1CFA04FC6646B54317FA04FC5CEA86
:100E4000050591F803C0BCF1280F07D15FF0010C34
:100E500013F1080E1CFA0EFCC0F814C091F803C080
:100E6000BCF1480F07D15FF0010C13F1080E1CFA1A
:100E70000EFCC0F810C05B1CC6E74560F0BD4FF625
:100E8000FF710180022181700421C1707047F0B4AC
:100E9000B0F1004F40F289800023002420F0004789
:100EA0003E00F7093B0016F07F0637093C0016F0BC
:100EB0000F062700FFB2BF0016FA07F73A00002B13
:100EC00008D0022B0ED009D3042B13D00ED3052B40
:100ED00014D017E0DFF88C753D0013E0DFF888755B
:100EE0003D000FE0DFF884753D000BE0DFF8807512
:100EF0003D0007E0DFF87C753D0003E0DFF8787522
:100F00003D00FFE7002C04D12F683F093F012F600F
:100F100043E0012C18D1012B0FD1052E06D32F68E9
:100F20007FF0C00C1CEA07072F6036E02F687FF0C7
:100F3000300C1CEA07072F602FE02F687FF0F00CC1
:100F40001CEA07072F6028E0022C04D12F6837F431
:100F500070672F6021E0032C04D12F6837F47047AD
:100F60002F601AE0042C04D12F6837F470272F600B
:100F700013E0052C04D12F6837F470072F600CE0C4
:100F8000062C04D12F6837F070672F6005E0072C1E
:100F900003D12F6827F070472F60C9B2012940F0B4
:100FA0005E822F683A432A6059E20200012A00F06B
:100FB000A580022A00F09080042A00F08D80082A83
:100FC00000F08A80102A00F0AE80302A00F0C08045
:100FD000402A00F0D280C02A00F0E480B2F5807F81
:100FE00000F0F580B2F5007F00F00581B2F5407F9A
:100FF00000F01381B2F5006F00F01F81B2F5406F71
:1010000000F02B81B2F5805F66D0B2F5804F00F022
:101010003481B2F5C04F00F04081B2F5004F5BD093
:10102000B2F5803F58D0B2F5003F55D0B2F5802FD1
:1010300052D0B2F5002F4FD0B2F5801F4CD0B2F590
:10104000001F00F0BA81B2F5800F00F0A681B2F562
:10105000000F00F09281B2F1807F00F02E81B2F19A
:10106000007F00F03A81B2F1806F00F04681B2F16A
:10107000805F00F07281B2F1005F00F05E81B2F13A
:10108000804F00F04A81DFF8F4339A4200F0A581E6
:10109000DFF8EC339A4200F0A081DFF8E8339A429F
:1010A00000F09B81DFF8E0339A4200F09681DFF890
:1010B000DC339A4200F0A381DFF8D4339A4200F087
:1010C000AE81DFF8D0339A4200F0B981DFF8C8333F
:1010D0009A4200F08281C2E1DFF8C02312688243A5
:1010E000DFF8B8331A60C9B2012906D1DFF8AC23A2
:1010F00012680243DFF8A4331A60B0E1DFF89C23E2
:101100001268DFF89C331A40DFF890331A60C9B2D6
:10111000012907D1DFF88423126852F00102DFF8B9
:101120007C331A609BE1DFF8742312687FF0300390
:101130001A40DFF868331A60C9B2012907D1DFF815
:101140005C23126852F01002DFF850331A6086E117
:10115000DFF8482312687FF030031A40DFF83C3391
:101160001A60C9B2012907D1DFF83023126852F0A2
:101170003002DFF828331A6071E1DFF820231268AB
:101180007FF0C0031A40DFF814331A60C9B2012996
:1011900007D1DFF80823126852F04002DFF8FC3272
:1011A0001A605CE1DFF8F42212687FF0C0031A4095
:1011B000DFF8E8321A60C9B2012907D1DFF8DC2272
:1011C000126852F0C002DFF8D4321A6047E1DFF84B
:1011D000CC22126832F44072DFF8C0321A60C9B211
:1011E000012907D1DFF8B422126852F48072DFF8C7
:1011F000AC321A6033E1DFF8A422126832F4407294
:10120000DFF898321A60C9B2012905D1A34A1268E1
:1012100052F40072A14B1A6021E1A04A126832F424
:1012200040729E4B1A60C9B2012905D19B4A1268CF
:1012300052F44072994B1A6011E1984A126832F4E4
:101240004062964B1A60C9B2012905D1934A1268CF
:1012500052F40062914B1A6001E1904A126832F434
:1012600040628E4B1A60C9B2012905D18B4A1268BF
:1012700052F44062894B1A60F1E0884A126832F4F5
:10128000C042864B1A60C9B2012905D1834A12684F
:1012900052F48042814B1A60E1E0804A126832F4D5
:1012A000C0427E4B1A60C9B2012905D17B4A12683F
:1012B00052F4C042794B1A60D1E0784A126832F099
:1012C000E062764B1A60C9B2012905D1734A1268EF
:1012D00052F08072714B1A60C1E0704A126832F0AD
:1012E000E0626E4B1A60C9B2012905D16B4A1268DF
:1012F00052F00072694B1A60B1E0684A126832F02D
:10130000E062664B1A60C9B2012905D1634A1268CE
:1013100052F08062614B1A60A1E0604A126832F0BC
:1013200080425E4B1A60C9B2012905D15B4A12683E
:1013300052F08042594B1A6091E0584A126832F0DC
:101340000052564B1A60C9B2012905D1534A12689E
:1013500052F00052514B1A6081E0504A126832F04C
:1013600080524E4B1A60C9B2012905D14B4A12680E
:1013700052F08052494B1A6071E0484A126832F4C8
:101380000002464B1A60C9B2012905D1434A1268CE
:1013900052F40002414B1A6061E0404A126832F494
:1013A00080023E4B1A60C9B2012905D13B4A12683E
:1013B00052F48002394B1A6051E0384A126832F414
:1013C0000012364B1A60C9B2012905D1334A12689E
:1013D00052F40012314B1A6041E0324A1268830223
:1013E0009B0A9A432F4B1A60C9B2012906D12D4A94
:1013F000126883029B0A1A432A4B1A602FE0294A7B
:10140000126832F4C012274B1A60C9B2012905D103
:10141000244A126852F40022224B1A601FE0214A2B
:10142000126832F4C0121F4B1A60C9B2012905D1EB
:101430001C4A126852F480121A4B1A600FE0194AC3
:10144000126832F4C012174B1A60C9B2012905D1D3
:10145000144A126852F4C012124B1A60FFE7F0BC33
:101460007047000020000140240001402800014096
:101470002C000140300001403400014020000040B9
:10148000000400400000024000000440000008404A
:1014900000001040000018400000204004000140FF
:1014A000FEFFFF7F1C000140F0B40021002200235A
:1014B00000240025DFF83862366816F00C0632008A
:1014C0001600002E04D0042E14D0082E16D063E08F
:1014D000DFF820623668B60108D5DFF81C6236688E
:1014E000B60503D5DFF81462066002E0DFF810628B
:1014F000066054E0DFF80862066050E0DFF8F06153
:10150000366816F480363400DFF8E4613668DFF8B8
:10151000F4713E40330013F0C04F06D113F470163F
:10152000B6F5701F01D0022600E00126C3F3834701
:101530005B0E13F030033B43F318002C05D1DFF8AA
:10154000C86106FB03F6066018E0DFF8A4613668A0
:10155000B6030ED5DFF8A061366816F440563100A8
:10156000090BDFF89C618F1CB6FBF7F65E43066043
:1015700004E0DFF88C6106FB03F60660DFF87061BB
:101580003668002E07D40668DFF88071BE4202D3A9
:10159000DFF87C61066002E0DFF864610660DFF876
:1015A00050613668C6F302163200DFF844613668CF
:1015B000360603D5DFF85C51AD5C00E00025066817
:1015C000EE404660DFF828613668C6F30126320037
:1015D000DFF81C613668760503D5DFF83851AD5C5D
:1015E00000E000254668EE408660414E3668C6F34E
:1015F000C12632003E4E3668B60403D5DFF81451DA
:10160000AD5C00E000254668EE40C660384E3668A6
:10161000C6F381363200364E3668F60001D552F0F8
:1016200004023D4EB65C3500C668B6FBF5F60661B1
:10163000F0BC7047C9B2002905D0384A126802438D
:10164000364B1A6004E0354A12688243334B1A6005
:101650007047C9B2002905D0314A12680243304BA5
:101660001A6004E02E4A126882432D4B1A607047BC
:10167000C9B2002905D02B4A12680243294B1A60CF
:1016800004E0284A12688243264B1A607047C9B2A8
:10169000002905D0244A12680243234B1A6004E053
:1016A000214A12688243204B1A607047C9B2002950
:1016B00005D01E4A126802431C4B1A6004E01B4A04
:1016C00012688243194B1A607047C0B2012806D1D4
:1016D0000949096851F03001074A116006E00649DE
:1016E00009687FF030021140034A11607047000022
:1016F000041002403010024054100240006CDC0222
:1017000000127A0000003C6000093D0001A24A047A
:1017100000A24A04083F0008103F000814100240CD
:10172000181002401C1002400C1002401010024021
:1017300010B50400764884420AD101214FF480405C
:10174000FFF7A5FF00214FF48040FFF7A0FF60E006
:10175000704884420AD101215FF40030FFF7A6FFF0
:1017600000215FF40030FFF7A1FF52E06A48844295
:101770000AD101215FF48020FFF798FF00215FF478
:101780008020FFF793FF44E0644884420AD101219E
:101790005FF40020FFF78AFF00215FF40020FFF7CD
:1017A00085FF36E05E4884420AD101215FF4801053
:1017B000FFF77CFF00215FF48010FFF777FF28E040
:1017C000584884420AD101215FF08070FFF75FFF23
:1017D00000215FF08070FFF75AFF1AE05248844200
:1017E0000AD101215FF00070FFF751FF00215FF087
:1017F0000070FFF74CFF0CE04C48844209D10121F6
:101800005FF08060FFF743FF00215FF08060FFF72B
:101810003EFF10BD2DE9F04786B004008846002544
:101820005FF0000A002600275FF00009B8F80C00FE
:101830000028A146208A05004CF6FF700540B8F844
:10184000060005432582A08905004EF6F3100540E9
:10185000B8F80400B8F808100843B8F80A100843AC
:101860000543A581A08A05004FF6FF400540B8F862
:101870000C000543A5826846FFF716FE2448814503
:1018800008D02848814505D02748814502D02748FF
:10189000814502D10398824601E0029882464FF4C6
:1018A0007A70A0FB0A01000940EA01700909D8F822
:1018B0000020002300F010FF05004FF47A70B5FB04
:1018C000F0F006004FF47A70B5FBF0F100FB115018
:1018D000000107004FF47A70B7FBF0F100FB1170C4
:1018E000B0F5FA7F04D24FF47A70B7FBF0F709E055
:1018F0004FF47A70B7FBF0F0471C102F02D3002092
:101900000700761C57EA0610208106B0BDE8F08774
:10191000003801400044004000480040004C0040B6
:101920000050004000600140006401400068014038
:101930004FF416510160002181800021C1800021F7
:1019400001810C214181002181817047C9B20029A8
:1019500004D0828952F40052828104E082894DF6DB
:10196000FF731A4082817047F0B4002300240025E1
:10197000002689B240F66A17B94206000F00FFB28E
:101980007F09FFB23B0089B211F01F073C0001271D
:10199000A7403D00012B01D10C3604E0022B01D100
:1019A000103600E01436D2B2002A03D037682F4335
:1019B000376002E03768AF433760F0BC7047D2B29F
:1019C000002A03D0838A0B43838202E0838A8B43FD
:1019D00083827047CA05D20D8280704702000020C2
:1019E00089B2B1F5007F13880B4202D001231800A1
:1019F00001E000231800C0B2704770B40300002457
:101A000000260025002089B240F66A1291420A00A1
:101A1000D2B25209D2B2150089B211F01F021600DB
:101A2000012212FA06F6012D02D19A89164006E02B
:101A3000022D02D11A8A164001E09A8A16400A0045
:101A400092B2120A92B21400012212FA04F41A8815
:101A50001440002E04D0002C02D00122100001E01E
:101A600000221000C0B270BC7047000010B5040026
:101A7000DFF81C0484420AD101214FF40060FFF713
:101A800006FE00214FF40060FFF701FE87E0B4F18D
:101A9000804F08D101210120FFF708FE002101201D
:101AA000FFF704FE7BE0DFF8EC03844208D101215C
:101AB0000220FFF7FBFD00210220FFF7F7FD6EE09B
:101AC000DFF8D403844208D101210420FFF7EEFDA2
:101AD00000210420FFF7EAFD61E0DFF8C003844243
:101AE00008D101210820FFF7E1FD00210820FFF7C0
:101AF000DDFD54E0DFF8A803844208D10121102065
:101B0000FFF7D4FD00211020FFF7D0FD47E0DFF8FC
:101B10009403844208D101212020FFF7C7FD002152
:101B20002020FFF7C3FD3AE0DFF87C0384420AD1AE
:101B300001214FF40050FFF7AAFD00214FF400509F
:101B4000FFF7A5FD2BE0DFF8640384420AD10121F1
:101B50005FF40020FFF79BFD00215FF40020FFF7FA
:101B600096FD1CE0DFF8480384420AD101215FF4AE
:101B70008010FFF78CFD00215FF48010FFF787FDD8
:101B80000DE0DFF83003844209D101215FF4001039
:101B9000FFF77DFD00215FF40010FFF778FD10BD19
:101BA000002203881A00DFF8E832984212D0B0F120
:101BB000804F0FD0DFF8E03298420BD0DFF8DC32F4
:101BC000984207D0DFF8E032984203D0DFF8C43201
:101BD000984204D14FF68F731A404B681A43DFF8CE
:101BE000C032984208D0DFF8BC32984204D04FF699
:101BF000FF431A408B891A4302808B68C3620B88AB
:101C000003858B7B038601238382704770B4002396
:101C100000240022058C4FF6FE7635400584058CA5
:101C20002C0085882A00058B2B004FF68F752B40E2
:101C30004FF6FC752B400D882B434FF6FD752C405D
:101C40008D892C434D882C434FF6F7752C40CD8958
:101C50002C434FF6FB752C408D882C434FF6FF65C7
:101C60002A404FF6FF552A400D8A2A434D8A2A43BF
:101C7000828003838D684563048470BC704770B4B0
:101C8000002300240022058C4FF6EF7635400584B2
:101C9000058C2C0085882A00058B2B0048F6FF75E3
:101CA0002B404FF6FF452B400D8853EA05234FF696
:101CB000DF752C408D8954EA05144D8854EA0514CB
:101CC0004FF67F752C40CD8954EA05144FF6BF7549
:101CD0002C408D8854EA05144FF6FF352A404FF208
:101CE000FF752A400D8A52EA85024D8A52EA850222
:101CF000828003838D688563048470BC704770B4F0
:101D0000002300240022058C4FF6FF663540058431
:101D1000058C2C0085882A00858B2B004FF68F754B
:101D20002B404FF6FC752B400D882B434FF6FF558B
:101D30002C408D8954EA05244D8854EA05244FF23D
:101D4000FF752C40CD8954EA05244FF6FF352C4011
:101D50008D8854EA05244EF6FF752A404DF6FF752E
:101D60002A400D8A52EA05124D8A52EA05128280F3
:101D700083838D68C563048470BC704770B400238E
:101D800000240022058C4EF6FF7635400584058C34
:101D90002C0085882A00858B2B0048F6FF752B4088
:101DA0004FF6FF452B400D8853EA05234DF6FF758E
:101DB0002C408D8954EA05344D8854EA05344BF69D
:101DC000FF752A400D8A52EA8512828083838D68CE
:101DD0000564048470BC7047C9B2002904D002882D
:101DE00052F00102028004E002884FF6FE731A40AE
:101DF00002807047C9B2002906D0B0F8442052F4DE
:101E00000042A0F8442005E0B0F844205204520CEF
:101E1000A0F844207047002203881A004FF68F7301
:101E20001A400A4302807047C9B2002904D00288D0
:101E300052F08002028004E002884FF67F731A405D
:101E4000028070470022038B1A004FF6F7731A4086
:101E50000A43028370470022038B1A004FF2FF737C
:101E60001A4052EA0122028370470022838B1A0033
:101E70004FF6F7731A400A43828370470022838B20
:101E80001A004FF2FF731A4052EA01228283704710
:101E9000002C01400004004000080040000C0040FD
:101EA000001000400014004000340140004C01408C
:101EB000005001400054014010B50400DFF8040751
:101EC000844209D101215FF00070FFF7EFFB002190
:101ED0005FF00070FFF7EAFB10BD30B40200002095
:101EE000002314687FF002052C401460146854F03D
:101EF000010414605468E40705D44FF6FF74A3424C
:101F000001D05B1CF6E75468E40702D400242000EB
:101F100073E08C79012C04D1146854F080041460AF
:101F200004E014687FF080052C401460CC79012C0B
:101F300004D1146854F04004146004E014687FF085
:101F400040052C4014600C7A012C04D1146854F024
:101F50002004146004E014687FF020052C40146015
:101F60004C7A012C04D1146854F01004146004E07D
:101F700014687FF010052C4014608C7A012C04D179
:101F8000146854F00804146004E014687FF0080535
:101F90002C401460CC7A012C04D1146854F0040451
:101FA000146004E014687FF004052C4014608C7801
:101FB000CD782D0655EA84740D7954EA05444D799F
:101FC00054EA05540D886D1E2C43D46114686408CE
:101FD00064001460002423005468E40705D54FF61C
:101FE000FF74A34201D05B1CF6E75468E40702D5F6
:101FF0000024200001E001242000C0B230BC704762
:1020000030B4002201238C7AA3401A00D0F80032A9
:1020100053F00103C0F80032D0F81C329343C0F8EB
:102020001C320B7B002B16D1D0F80C329343C0F836
:102030000C328B7A00EBC303CC884D8855EA0444FC
:10204000C3F840428B7A00EBC3038C880D8855EAB5
:102050000444C3F844420B7B012B16D1D0F80C3258
:102060001343C0F80C328B7A00EBC3030C884D8805
:1020700055EA0444C3F840428B7A00EBC3038C88D2
:10208000CD8855EA0444C3F84442CB7A002B05D1ED
:10209000D0F804329343C0F8043204E0D0F804329C
:1020A0001343C0F804320B89002B04D1D0F814324A
:1020B0009343C0F814320B89012B04D1D0F81432A9
:1020C0001343C0F814324B7B012B04D1D0F81C32DF
:1020D0001343C0F81C32D0F800325B085B00C0F834
:1020E000003230BC7047002181710021C171002194
:1020F000017200214172002181720021C172002110
:1021000081700021C17003210171022141710121FF
:102110000180704730B40200002093685B0102D553
:10212000002318000DE093681B0102D5012318005D
:1021300007E09368DB0002D50223180001E00423C6
:102140001800C0B2042875D0C0B203011344D3F8FC
:10215000803113F00103C0B204011444C4F880318B
:102160000B7A002B0FD1C0B203011344D3F8803196
:102170000C684D7A55EA44542343C0B20401144418
:10218000C4F8803110E0C0B203011344D3F88031A9
:102190004C680D7A55EAC4044D7A2C432343C0B2EF
:1021A00004011444C4F880318B7A13F00F038B724E
:1021B000C0B203011344D3F884311B091B01C0B220
:1021C00004011444C4F88431C0B203011344D3F8A9
:1021D00084318C7A2343C0B204011444C4F884319E
:1021E0008B7B4C7B240454EA03630C7B53EA04236B
:1021F000CC7A2343C0B204011444C4F888318B7CE8
:102200004C7C240454EA03630C7C53EA0423CC7B07
:102210002343C0B204011444C4F88C31C0B203019A
:102220001344D3F8803153F00103C0B204011444C5
:10223000C4F88031C0B230BC7047C9B20B0103444E
:10224000D3F8B03113F004031372137A002B07D1C3
:10225000C9B20B010344D3F8B0315B0D136006E043
:10226000C9B20B010344D3F8B031DB085360C9B2E3
:102270000B010344D3F8B03113F002035372C9B217
:102280000B010344D3F8B43113F00F039372C9B2B6
:102290000B010344D3F8B4311B0AD374C9B20B0148
:1022A0000344D3F8B831D372C9B20B010344D3F855
:1022B000B8311B0A1373C9B20B010344D3F8B83108
:1022C0001B0C5373C9B20B010344D3F8B8311B0E76
:1022D0009373C9B20B010344D3F8BC31D373C9B2B1
:1022E0000B010344D3F8BC311B0A1374C9B20B01B0
:1022F0000344D3F8BC311B0C5374C9B20B01034423
:10230000D3F8BC311B0E9374C9B2002904D1C36841
:1023100053F02003C36003E0036953F0200303611B
:10232000704702000020C9B2002904D1D36813F01D
:102330000303180009E0C9B2012904D1136913F09D
:102340000303180001E000231800C0B2704730B446
:10235000020000204FF6FF73C9B200291AD1146899
:102360007FF002052C4054F001041460546814F00E
:102370000304012C03D0002B01D05B1EF6E7546848
:1023800014F00304012C02D0002420003AE00124C0
:10239000200037E0C9B2012915D11468A408A400AF
:1023A0001460546814F0030F03D0002B01D05B1E9F
:1023B000F7E7546814F0030F02D00024200021E056
:1023C000012420001EE0C9B2022919D11468640852
:1023D000640054F002041460546814F00304022CE6
:1023E00003D0002B01D05B1EF6E7546814F0030401
:1023F000022C02D00024200004E00124200001E08F
:1024000000242000C0B230BC7047D2B2002A03D0F2
:1024100043690B43436102E043698B434361704767
:1024200070B504000D000026606928427BD02800AA
:10243000012821D0022825D0042829D008282DD011
:10244000102831D0202835D0402839D0B0F5807FF1
:1024500048D0B0F5007F4BD0B0F5806F4ED0B0F5CE
:10246000006F51D0B0F5004F54D0B0F5803F2DD063
:10247000B0F5003F30D053E05349A06800F0A6F813
:10248000060052E00321E06800F0A0F806004CE0EE
:102490000821E06800F09AF8060046E01021E068A4
:1024A00000F094F8060040E00321206900F08EF867
:1024B00006003AE00821206900F088F8060034E0C0
:1024C0001021206900F082F806002EE008216068E3
:1024D00000F07CF8060028E01021606800F076F833
:1024E000060022E00121A06900F070F806001CE05F
:1024F0000221A06900F06AF8060016E00421A06934
:1025000000F064F8060010E07021A06900F05EF8A9
:1025100006000AE00421606800F058F8060004E0B4
:102520000020060001E0002006003000C0B270BDAF
:102530000A00012A1DD0042A1ED0082A1FD0202AF2
:1025400020D0402A21D0B2F5807F27D0B2F5007F7D
:1025500027D0B2F5806F27D0B2F5006F27D0B2F543
:10256000004F29D0B2F5803F12D0B2F5003F12D013
:1025700027E0154A826024E00822C26021E0102290
:10258000C2601EE0082202611BE01022026118E016
:102590000822426015E01022426012E004224260EC
:1025A0000FE0042242600CE00422426009E00022B5
:1025B00082610422426004E00022826104224260BF
:1025C000FFE77047006400400101010002000020A5
:1025D0000A4202D00123180001E000231800C0B213
:1025E0007047000010B440B2002808D50A01324BF1
:1025F00040B210F00F04234403F8042C03E00A0156
:102600002E4B40B21A5410BC704710B50400601E27
:10261000B0F1807F01D301200EE0601E28490860E0
:102620000F215FF0FF30FFF7DDFF00202549086034
:10263000072025490860002010BD80B523480068A8
:102640004FF47A71B0FBF1F021490978B0FBF1F059
:10265000FFF7DBFF002800D0FEE700215FF0FF302E
:10266000FFF7C0FF01BD1B480068194909784018F1
:10267000184908607047174800687047884201D3BE
:10268000401A03E05FF0FF32511A4018704770B5EE
:102690000400FFF7F0FF0500260016F1010F02D03D
:1026A0000B4800783618FFF7E6FF2900FFF7E6FF32
:1026B000B042F8D370BD000018ED00E000E400E087
:1026C00014E000E018E000E010E000E0100000205E
:1026D00018000020F42600201B4213D1094236D1F5
:1026E0002AB18446B0FBF2F002FB10C2704700F042
:1026F0006BB8FCD30022002370470B0002000021BE
:1027000000207047904271EB030CF6D370B5B1FA1C
:1027100081F4B3FA83F52C1BA340C4F1200532FAEF
:1027200005F63343A2405FF00046E64002E05B0856
:102730005FEA3202841A71EB030524BF2046294662
:102740007641F4D302000B003000002170BD012A55
:10275000CFD970B5140C20D0B1FA81F4B2FA82F559
:10276000C4F120046419B4F12006D6D3B2405FF05E
:102770000044F440002502E052085FEA3303C61A21
:1027800071EB020E24BF3046714664416D41F3D3B4
:1027900002000B002000290070BD0C46B1FBF2F1D5
:1027A00002FB11452D0445EA1045B5FBF2F402FB8E
:1027B000145580B240EA0545B5FBF2F002FB105219
:1027C00040EA044070BD000070470000DFF8BC051F
:1027D000DFF8BC150860DFF8B8050068002801D1F3
:1027E00000205DE00020DFF8A81508710020DFF868
:1027F000A01588600020DFF89815C8600020DFF879
:10280000901508740020DFF888154874DFF88405F7
:10281000DFF87C154861DFF88005DFF87415886102
:10282000DFF87805DFF86815C861DFF864054069EE
:10283000002804D0DFF858058069002801D1002065
:102840002EE02020DFF8481581F820001020DFF866
:10285000401581F821004FF40070DFF8341548620C
:102860002020DFF82C1581F828001020DFF8201533
:1028700081F829004FF40070DFF81415C8620020B9
:10288000DFF80C1508630020DFF80415486300200A
:10289000DFF8FC1488630020DFF8F414C86301201B
:1028A0007047DFF8FC04DFF8FC140860DFF8F4047C
:1028B0000068002801D100205FE00020DFF8E41468
:1028C0000871DFF8E404DFF8DC148860DFF8DC046A
:1028D000DFF8D014C8600020DFF8C81408740020A6
:1028E000DFF8C0144874DFF8C804DFF8B814486192
:1028F000DFF8C004DFF8AC148861DFF8BC04DFF84F
:10290000A414C861DFF89C044069002804D0DFF8F3
:1029100094048069002801D100202EE02020DFF8F7
:10292000841481F820001020DFF8781481F8210049
:102930004FF40070DFF86C1448622020DFF8641454
:1029400081F828001020DFF85C1481F829004FF48A
:102950000070DFF85014C8620020DFF848140863E4
:102960000020DFF8401448630020DFF83814886343
:102970000020DFF83014C86301207047416901640A
:102980000021416400218164416A491EC16470478D
:102990000200002901D100201AE08868401C4B6821
:1029A000984206D08868CB68984204D148680028CD
:1029B00001D100200CE008688B68C2548868401C74
:1029C0008860C8688B68984201D200208860012026
:1029D00070470200002901D100200AE048688B6896
:1029E000984201D1002004E008684B681844106048
:1029F0000120704710B40200002901D100200EE030
:102A000048688B68984203D100201060002006E0DF
:102A100008684B681824634318441060012010BCF8
:102A2000704710B582B00400002C01D100200BE0EB
:102A30000020009014F140016846FFF7CAFF00280B
:102A400001D0009800E0009816BD10B582B00400D7
:102A5000002C01D100200BE00020009014F1500167
:102A60006846FFF7C7FF002801D0009800E00098F3
:102A700016BD38B504000D00002C01D101203EE048
:102A8000EDB2012D12D1002020630020A0632000B0
:102A9000FFF774FF2068808950F004002168888166
:102AA000012240F225512068FEF75EFF20688089F0
:102AB00050F0040021688881012240F225512068ED
:102AC000FEF752FF002240212068FEF778FF2068C1
:102AD000DFF8B812884205D10021DFF8E00200F0EB
:102AE00071F909E02068DFF8B812884204D10021AA
:102AF000DFF8CC0200F066F901206074002032BDDE
:102B0000F8B504000D001600207C0128FCD001203F
:102B10002074002E0ED0E06A86420BD2A7693200E4
:102B20002900380000F082F92068DFF8601288423E
:102B300025D102E07FF0010045E00027BFB2B74297
:102B400011D2DFF85402BFB2C15D89B2DFF83C0296
:102B5000FEF740FF8021DFF83402FEF73FFF002838
:102B6000F8D07F1CEAE74021DFF82002FEF736FFAD
:102B70000028F8D0DFF8140200F0CAF822E020683C
:102B8000DFF81C1288421DD10027BFB2B74210D215
:102B9000DFF82002BFB2C15D89B2DFF80402FEF7A0
:102BA00019FF80217E48FEF719FF0028F9D07F1C0D
:102BB000EBE740217A48FEF711FF0028F9D078486A
:102BC00000F0A6F83000F2BD2DE9F04704000D003A
:102BD00016005FF000080027002D01D0002E01D163
:102BE000002083E0607C022802D0607C032851D161
:102BF0002000FFF72AFF8146B9F1000F01D1002024
:102C000074E0032089F80000B846B0453ED2D9F8F8
:102C10001400D9F81010405C05F80800D9F810002D
:102C2000401CC9F8100000F03DF98246606B401E60
:102C30006063504680F31088D9F81000D9F80C1062
:102C4000884220D3002089F80000606D401C606538
:102C5000E06D616D884201D20020606518F10100CD
:102C6000B0420DD22000FFF7F0FE8146B9F1000F0F
:102C700003D1404610F1010838E0032089F8000034
:102C800018F1010802E018F10108BEE74746B04517
:102C9000BAD32AE0607C012827D15FF00009002028
:102CA0008046B04521D22000FFF7BBFE8146B9F136
:102CB000000F01D1404619E099F8000005F808001E
:102CC00000F0F0F88246206B401E2063504680F3EF
:102CD0001088606C401C6064E06C616C884201D2BA
:102CE0000020606418F10108DBE74046BDE8F0878A
:102CF0000100487C022802D0487C032801D1486B9F
:102D000005E0487C012801D1086B00E000207047F5
:102D100038B5040000251D48844202D11C48050036
:102D200004E01F48844201D11E480500002D0BD04D
:102D3000002028742879012806D1E868002801D0ED
:102D4000E86880470020287131BD38B504000025AF
:102D50000E48844202D10E48050004E01048844227
:102D600001D110480500002D0ED015F14001A088BA
:102D7000C0B2FFF70DFE002803D0286B401C28636B
:102D800002E0A86B401CA86331BD00000038014080
:102D900000260020201C0020201E002020160020DD
:102DA0000044004060260020330700083F07000869
:102DB000202000202022002020190020580002405E
:102DC0006C000240C9B2002904D0026852F001022E
:102DD000026004E002684FF6FE731A40026070471A
:102DE000010000200022CB0003D50E4B1B681A0007
:102DF00002E00D4B1B681A000A4202D001231800A2
:102E000001E000231800C0B27047C10002D5044998
:102E1000086001E0014908607047000004000240BA
:102E200004040240000402400000024062B38B0729
:102E300008D0521E11F8013B00F8013B00F024803D
:102E40008B07F6D1830740F0208000BF103A07D3EC
:102E500030B4B1E83810103AA0E83810F9D230BCDC
:102E6000530724BFB1E80810A0E8081044BF51F888
:102E7000043B40F8043BD20724BF31F8022B20F872
:102E8000022B44BF0B7803707047083A07D3B1E8B0
:102E90000810083A40F8043B40F804CBF7D2530737
:102EA000E4E70000EFF3108072B67047DFF800052A
:102EB000DFF800150860DFF8FC040068002801D185
:102EC000002012E01420DFF8EC1488804020DFF8A6
:102ED000E414C880DFF8E004DFF8D8148860DFF875
:102EE000DC04DFF8D014C8600120704781680161FC
:102EF00000214161002181618188491EC1617047C3
:102F0000C16801620021416200218162C188491EBD
:102F1000C162704710B40200002A01D0002901D11B
:102F2000002014E08868401C4B68984206D08868EE
:102F3000CB68984204D14868002801D1002006E0FF
:102F400008688B681824634318441060012010BC83
:102F5000704738B504000D00002C01D0002D01D1C0
:102F6000002018E06868A968884201D1002012E0BA
:102F7000200029686A6818235A4311441822FFF771
:102F800055FF6868401C6860E8686968884201D23B
:102F900000206860012032BD38B504000D00002C0F
:102FA00001D0002D01D1002020E0A868401C6968F4
:102FB000884206D0A868E968884204D16868002879
:102FC00001D1002012E02868A96818225143084462
:102FD00021001822FFF72AFFA868401CA860E868B3
:102FE000A968884201D20020A860012032BD10B437
:102FF0000200002A01D0002901D100200CE048681D
:103000008B68984201D1002006E008684B681824BC
:10301000634318441060012010BC704770B586B03F
:1030200004000025DFF88803844203D1DFF884031D
:10303000050003E0DFF8880384421DD100200090E2
:1030400015F1100631006846FFF764FF00280ED026
:10305000009A00212000FFF7F0F8B068401CB06033
:10306000F068B168884207D20020B06004E001AA8D
:1030700000212000FFF7E1F806B070BD70B586B002
:1030800004000025CA48844202D1CA48050002E073
:10309000CB4884421DD10020009015F1100631006C
:1030A0006846FFF737FF00280ED0009A0021200065
:1030B000FFF7C3F8B068401CB060F068B1688842A0
:1030C00007D20020B06004E001AA00212000FFF731
:1030D000B4F806B070BD70B586B004000025B448E1
:1030E000844202D1B348050002E0B54884421DD1B4
:1030F0000020009015F1100631006846FFF70AFF26
:1031000000280ED0009A01212000FFF796F8B06841
:10311000401CB060F068B168884207D20020B060FF
:1031200004E001AA01212000FFF787F806B070BD76
:1031300070B586B0040000259D48844202D19D48A8
:10314000050002E09E4884421DD10020009015F148
:10315000100631006846FFF7DDFE00280ED0009A09
:1031600001212000FFF769F8B068401CB060F068EA
:10317000B168884207D20020B06004E001AA0121B2
:103180002000FFF75AF806B070BD10B50400082102
:103190002000FFF745F9002806D008212000FFF79E
:1031A000C7F92000FFF73AFF04212000FFF738F9A4
:1031B000002806D004212000FFF7BAF92000FFF70D
:1031C0002DFF02212000FFF72BF9002809D0002154
:1031D0002000FFF7A6F8002803D02000FFF74EFFDD
:1031E000F5E740212000FFF71BF9002806D0402119
:1031F0002000FFF79DF92000FFF76DFF2021200040
:10320000FFF70EF9002806D020212000FFF790F9E3
:103210002000FFF760FF10212000FFF701F90028D0
:1032200009D001212000FFF77CF8002803D02000FE
:10323000FFF77EFFF5E710BD70B504000D00002C10
:1032400001D0002D01D1012012E029002068FEF7F5
:1032500061FF0600042E01D0002009E014F12001D6
:103260002800FFF799FE002801D0002000E001208F
:1032700070BD38B504000D00002C01D0002D01D127
:10328000012009E014F110012800FFF762FE002878
:1032900001D0002000E0012032BD38B5040000203C
:1032A000009014F12005002D17D029006846FFF783
:1032B0009EFE002811D000992068FEF72BFF0428FD
:1032C00001D102200AE06868401C6860E86869680B
:1032D0008842EAD200206860E7E7002032BD7FB56F
:1032E0000400002537480FC86E4686E80F002068A6
:1032F0002F49884203D10020ADF8080009E020687A
:103300002F49884203D10120ADF8080001E00120D7
:103310004BE000208DF80B0001208DF80C00002000
:10332000ADF800000420ADF802000020ADF8040064
:103330000420ADF8060001208DF80D0020681C491E
:10334000884203D128008DF80A0006E020681C4955
:10335000884202D1A81C8DF80A0069462068FEF751
:103360004FFE6D1C00208DF80B0000208DF80C0026
:103370000020ADF802000820ADF8060001208DF80D
:103380000D0020680A49884203D128008DF80A0000
:1033900006E020680A49884202D1A81C8DF80A007C
:1033A00069462068FEF72CFE002004B070BD0000C6
:1033B00000640040C02600202024002020100020AF
:1033C00000680040EC3E000810B586B00400694675
:1033D0002000FFF74EFF002804D169462000FFF7C8
:1033E0002BFFF4E72000FFF758FF06B010BD0000E8
:1033F000BFF34F8F9B48006810F4E0609A49084380
:1034000098490860BFF34F8F00BFFDE780B597482C
:10341000008880B200F0FF00FE2809D000F050F9CB
:1034200000F063F9FE21914800F0C7F9FFF7E0FFD3
:1034300001BD80B5FFF701F9FCF70AFF8C48006871
:103440008C4948608C4800688A4988608B480068CD
:103450008849C860FCF7E1FFFDF773F85FF4E130DD
:10346000FDF7E1F85FF4E130FDF721F9FDF76DF9C3
:10347000FDF703FAFDF792FA0720FDF722FBFFF7AD
:10348000A5F901217E48FFF7F4FAFFF70AFA0121B6
:103490007C48FFF7EEFA7B48C0688047FFF706FDDF
:1034A0007948FFF723FD7848FFF72AFD7648FFF7B4
:1034B00016FF7648FDF700FC6420FFF7E8F8C046E9
:1034C000C0467148FFF780FF00F065F800F096F8FD
:1034D00000F004F87F2000F0F9F9F2E780B5FFF77B
:1034E000CAF86B490968FFF7C9F8B0F5FA7F51D3FC
:1034F000FFF7C1F8664908606648006890F400402C
:10350000644908606348006890F0100061490860F1
:103510006048006890F020005E4908605D480068DF
:1035200090F040005B4908605A48006890F08000C5
:10353000584908605848006890F48050564908601F
:103540005548006890F4005053490860524800689C
:1035500090F48040504908604F48006890F4004063
:103560004D4908604D48006890F400404B490860A0
:103570004A48006890F4804048490860454800681F
:1035800090F48070434908604348006890F0080058
:103590004149086001BD80B500208DF80000394820
:1035A00000F09CF9002817D001226946354800F048
:1035B000ACF99DF800003A490978884203D101200E
:1035C0003849087008E09DF80000374909788842BA
:1035D00002D1012035490870324800783349097812
:1035E00008420AD010222349264800F07DF9002025
:1035F0002C49087000202D49087001BD80B50020BD
:103600008DF800001E48FFF773FB002817D0012239
:1036100069461B48FFF7D8FA9DF80000244909784D
:10362000884203D101202349087008E09DF800007A
:1036300021490978884202D10120204908701D489B
:1036400000781E49097808420AD0102209490C481E
:10365000FFF756FA00201749087000201749087034
:1036600001BD00000CED00E00400FA0510F8FF1F9A
:10367000E8F7FF1F00000020ECF7FF1FF0F7FF1F27
:103680000026002060260020C026002000640040A4
:10369000F02600200C0801400C0C01400C100140E9
:1036A00014000020F826002015000020F926002034
:1036B00016000020FA26002017000020FB2600201C
:1036C000DFF8B401DFF8B4110860DFF8B401DFF807
:1036D000AC110860DFF8A001DFF8A8110860DFF87E
:1036E000A001DFF8A0110860704738B5A5240425B3
:1036F00000F097F8002801D0002004005FF080500F
:1037000000F0C4F80500EDB2042D53D1DFF86801D4
:10371000DFF8A8110860DFF86801DFF8A011086081
:10372000DFF86401006850F02000DFF85C110860E9
:10373000DFF85401006850F04000DFF84C110860D9
:103740005FF0805000F0A2F80500EDB2042D25D105
:10375000DFF8340100687FF020010840DFF828110D
:103760000860DFF82401006850F01000DFF818113D
:103770000860DFF84C0104804FF4704000F086F8D8
:103780000500EDB2052D15D0DFF8FC0000687FF0D4
:1037900010010840DFF8F01008600BE0EDB2052DD5
:1037A00008D0DFF8E40000687FF010010840DFF87F
:1037B000D81008602800C0B232BD70B504000D00FA
:1037C00004264FF4704000F061F80600F6B2042EB3
:1037D00024D1DFF8A400DFF8E4100860DFF8A000CF
:1037E000DFF8D8100860DFF8A000006850F0100083
:1037F000DFF894100860EDB225804FF4704000F0BF
:1038000045F80600F6B2052E08D0DFF87C00006807
:103810007FF010010840DFF8701008603000C0B27F
:1038200070BD0020DFF89C100968890702D50121CE
:10383000080001E000210800C0B270470420DFF852
:1038400088100968C90702D50121080010E0DFF8D7
:1038500078100968490702D50221080008E01A49D2
:103860000968C90602D50321080001E00421080007
:10387000C0B27047000000002301674504200240E9
:10388000AB89EFCD442002401020024038B504003F
:103890000425FFF7D3FF0500EDB2012D06D1002C62
:1038A00004D0FFF7CBFF0500641EF5E7002C01D123
:1038B000052005002800C0B232BD000008200240EB
:1038C00000F8FF1F1C2002400C200240C0B210F084
:1038D0007F01014A11607047002C004010B50400C0
:1038E0002000FFF705FA10BD70B504000D001600AA
:1038F000A068002801D0A068804701202071320014
:1039000029002000FFF7FCF870BD70B504000D0021
:103910001600320029002000FFF756F970BD0000A4
:103920007047FEE7FEE7FEE7FEE770477047704727
:1039300080B5FEF798FE01BD80B52020FFF750FA54
:10394000002802D01020FFF760FA01BD80B54FF4C7
:103950000070FFF745FA002803D04FF48070FFF79E
:1039600054FA01BD80B54FF40050FFF739FA002832
:103970000CD040217948FEF731F80028F9D077487B
:10398000FFF7C6F94FF48050FFF73FFA01BD80B54D
:103990005FF40030FFF724FA002803D05FF4803092
:1039A000FFF733FA01BD80B55FF40010FFF718FA96
:1039B000002803D05FF48010FFF727FA01BD80B51F
:1039C0005FF00070FFF70CFA002803D05FF0807002
:1039D000FFF71BFA01BD704780B56148FFF7D5FBC3
:1039E00001BD80B55FF4802000F0D8F801BD80B53E
:1039F000012000F0DBF8012802D1012000F0E4F8FA
:103A0000022000F0D3F8012802D1022000F0DCF8F7
:103A100001BD80B55248FFF7B8FB01BD7047704744
:103A2000704770477047704780B540F225514B484A
:103A3000FDF7E3FF002802D04848FFF786F901BDF3
:103A400080B540F225514748FDF7D7FF002802D046
:103A50004448FFF77AF901BD80B540F2255142484C
:103A6000FDF7CBFF002802D03F48FFF76EF901BDFC
:103A700080B5012000F07EF8002804D0012000F07D
:103A80008DF8C046C04601BD80B5022000F072F836
:103A9000002804D0022000F081F8C046C04601BDD5
:103AA00080B5042000F066F8002804D0042000F05F
:103AB00075F8C046C04601BD80B5082000F05AF830
:103AC000002804D0082000F069F8C046C04601BDB7
:103AD00080B5102000F04EF8002804D0102000F02F
:103AE0005DF8C046C04601BD80B5202000F042F818
:103AF000002804D0202000F051F8C046C0464020E5
:103B000000F038F8002804D0402000F047F8C04604
:103B1000C046802000F02EF8002804D0802000F05D
:103B20003DF8C046C04601BD80B54FF4804000F06E
:103B300021F8002805D04FF4804000F02FF8C0464F
:103B4000C04601BD80B50948FFF74AF9002802D0F8
:103B50000748FFF75AF901BD000000000038014096
:103B60000064004000440040004800400002001093
:103B7000000100100100002000220A4B1B680B40CE
:103B80001A00094B1B680B4204D0002A02D0012303
:103B9000180001E000231800C0B270470249086015
:103BA000704700000004014014040140010000209F
:103BB000104A126889B20A4202D00122100001E0C4
:103BC00000221000C0B2704780B2012805D1094917
:103BD000096849084900074A116080B2022806D1E5
:103BE000044909687FF002021140024A11607047DF
:103BF000000000000058014080B55648006850F4AD
:103C00007000544908605448006850F0010052495F
:103C100008605248006852490840504908604E48C0
:103C20000068504908404C4908604B48006830F42F
:103C3000802049490860494800684B490840474985
:103C400008604A4800684A490840484908605FF4EB
:103C50001F004849086000F005F85FF00060464921
:103C6000086001BD80B500F001F801BD00B583B06A
:103C700000200190002000903748006850F4803008
:103C8000354908603448006810F40030009001980D
:103C9000401C01900098002803D10198B0F5405FC6
:103CA000F0D12D480068800302D50120009001E08A
:103CB000002000900098012849D128480068274931
:103CC00008602648006830F46050244908602348A2
:103CD000006850F40050214908602048006830F422
:103CE000E0601E4908601D48006850F480601B4970
:103CF00008601A48006821490840184908601748B8
:103D000000681F490843154908601348006850F0CF
:103D1000807011490860104800688001FBD50120BF
:103D2000FDF7D3FC0D480068800880000B4908604F
:103D30000A48006850F00200084908600748006817
:103D400010F00C000828F9D10020FDF7BEFC07BDDB
:103D50000000000088ED00E0001002400410024066
:103D60000C00FFE8FFFFF6FEFFFF001730100240D7
:103D700000FFFEFE0810024008ED00E0FFFFC01F3C
:103D8000000035A019E050F8041BCB0744BFA9F18F
:103D900001035918121F0023042A41F8043BF9D2E9
:103DA0005FEA827C0B4604D54FF0000CA1F800C0FE
:103DB0009B1CD10744BF0021197050F8042B002A26
:103DC000E1D1704741F20000C2F20000854606488A
:103DD000804740F20000C0F60000D0F800D0034851
:103DE00080470348004700000D340008F93B0008F5
:103DF000FD3E000810B450F8041B79B10268436816
:103E000002440830DC0744BFA9F10104E31852F86A
:103E1000044B43F8044B091FF9D1ECE710BC704781
:103E200010B5074979441831064C7C44163404E037
:103E30000A68081D114488470146A142F8D110BD07
:103E40002C0000004C0000004EF68851CEF200011C
:103E5000086840F470000860BFF34F8FBFF36F8FA6
:103E60004FF00070E1EE100A7047000019FFFFFFED
:103E7000DC160000201000200000000079FFFFFF8A
:103E80001C0000004C0000000000002000000000AA
:103E90000120C046002801D0FFF7C2FF0020C04625
:103EA000C046FFF7C6FA00F000F800F001B80000C5
:103EB0000746384600F002F8FBE7000080B5C04630
:103EC000C046024A11001820ABBEFBE726000200E4
:103ED00041545301000000000000000000000000F9
:103EE000001C4E0EA55AAA5501000000000000005B
:103EF000000000000000000000000000C046C046B6
:103F0000FFF7A2FFFFF7C4FF010203040607080939
:103F100002040608020C0810FFF7FEBFFFF7FEBF01
:103F2000FFF7FEBFFFF7FEBFFFF7FEBFFFF7FEBFC5
:103F3000FFF7FEBFFFF7FEBFFFF7FEBFFFF7FEBFB5
:103F4000FFF7FEBFFFF7FEBFFFF7FEBFFFF7FEBFA5
:103F5000FFF7FEBFFFF7FEBFFFF7FEBFFFF7FEBF95
:103F6000FFF7FEBFFFF7FEBFFFF7FEBFFFF7FEBF85
:103F7000FFF7FEBFFFF7FEBFFFF7FEBFFFF7FEBF75
:103F8000FFF7FEBFFFF7FEBFFFF7FEBFFFF7FEBF65
:103F9000FFF7FEBFFFF7FEBFFFF7FEBFFFF7FEBF55
:103FA000FFF7FEBFFFF7FEBFFFF7FEBFFFF7FEBF45
:103FB000FFF7FEBFFFF7FEBFFFF7FEBFFFF7FEBF35
:083FC000FFF7FEBFFFF7FEBF93
:0400000508003EFDB4
:00000001FF
